:020000040000FA
:100000000C948A000C94B2000C94B2000C94B200D0
:100010000C94B2000C94B2000C94B2000C94B20098
:100020000C94B2000C94B2000C94B2000C94B20088
:100030000C94B2000C94B2000C94B2000C94B20078
:100040000C94AE040C94B2000C94B2000C94B20068
:100050000C94B2000C94B2000C94B2000C94B20058
:100060000C94F8040C94B200036EDB363D9A999917
:10007000993DABAAAA2A3E000000803F072C7AA532
:10008000BA6CC590DA3B9365FC8BBC53F810FD3C11
:100090005692834DBD879D3AB63DCBC9BF5BBE73BB
:1000A000DA0FC93F05A84CCDB2D44EB93836A902F3
:1000B0000C50B9918688083CA6AAAA2ABE00000066
:1000C000803F000000080002010000030407000058
:1000D00000000000000000000000250028002B00A8
:1000E00000000000240027002A0004040404040483
:1000F00004040202020202020303030303030102D7
:1001000004081020408001020408102001020408A5
:1001100010209F0A11241FBECFEFD8E0DEBFCDBF55
:1001200011E0A0E0B1E0E2EFFCE102C005900D9229
:10013000A231B107D9F722E0A2E1B1E001C01D92DE
:10014000A631B207E1F710E0CAE8D0E004C0219779
:10015000FE010E94620EC938D107C9F70E94170636
:100160000C94770E0C9400009091B9018091B80125
:100170002FEF3FEF981748F4E92FF0E0E856FE4FD5
:10018000208130E09F5F9093B901C901089590915B
:10019000B9018091B8012FEF3FEF981748F4E92F8C
:1001A000F0E0E856FE4F208130E09F5F9093B90168
:1001B000C901089590E0FC01E250FF4F249186515F
:1001C0009F4FFC018491882399F090E0880F991F3C
:1001D000FC01E052FF4FA591B491FC01EA52FF4FA0
:1001E000859194918FB7F894EC91E22BEC938FBFAB
:1001F000089590E0FC01EE53FF4F2491FC01E25082
:10020000FF4F3491FC01E651FF4FE491EE23C9F01A
:10021000222339F0233001F1A8F4213019F12230E2
:1002200029F1F0E0EE0FFF1FEA52FF4FA591B491C4
:100230008FB7F894EC91611126C030953E233C9322
:100240008FBF08952730A9F02830C9F0243049F72E
:10025000809180008F7D03C0809180008F77809394
:100260008000DFCF84B58F7784BDDBCF84B58F7DF1
:10027000FBCF8091B0008F778093B000D2CF809178
:10028000B0008F7DF9CF3E2BDACF3FB7F894809145
:10029000940190919501A0919601B091970126B596
:1002A000A89B05C02F3F19F00196A11DB11D3FBFAE
:1002B000BA2FA92F982F8827BC01CD01620F711D7D
:1002C000811D911D42E0660F771F881F991F4A9577
:1002D000D1F708950895089520913301260F33270B
:1002E000331F21323105ECF42091E001FC0190E054
:1002F00080E0243069F082E00895A09133012191DB
:10030000AC014D5E5E4FA40FB52FB11D2C9301962D
:10031000861798F380913301680F6093330180E072
:10032000089581E008951092E00181E08093DF015B
:100330001092BA0161E082E10E94F90061E083E17C
:100340000E94F900E9EBF0E080818E7F808380815C
:100350008D7F808388E48093B80085E48093BC001F
:100360000895CF93DF9391E0909312018823B9F021
:10037000C091B800D091BA008091BC008A7B809374
:10038000BC0060E082E10E94F90060E083E10E942D
:10039000F9000E949301D093BA00C093B800DF9196
:1003A000CF910895CF92DF92EF92FF920F931F9318
:1003B000CF93DF93D091090281E0D13208F09CC045
:1003C000C09108020E9445016B017C018091E0010F
:1003D00081116CC082E08093E00181E08093DF01B5
:1003E0008FEF8093DE011092DD01D093DC01A8EE47
:1003F000B1E0ECEBF1E080E0D8138DC01092BB01CE
:100400008091BB01CC0FC82BC093BB018091BA0176
:10041000813009F084C01092BA010E9445016B013D
:100420007C018091BB018093BB008091E20190919F
:10043000E301A091E401B091E501892B8A2B8B2B7C
:10044000A1F00E9445010091E2011091E301209189
:10045000E4013091E5016C197D098E099F090617A9
:1004600017072807390708F442C08091BC0083FDB4
:10047000D8CF85EC8093BC000E9445016B017C01C4
:100480008091E001823009F44CC08091DE018F3F01
:1004900009F469C08091DE01803209F466C0809160
:1004A000DE01803309F463C084E026C08091E2015C
:1004B0009091E301A091E401B091E501892B8A2B91
:1004C0008B2B09F483CF0E9445010091E20110912A
:1004D000E3012091E4013091E5016C197D098E0959
:1004E0009F09061717072807390708F06FCF809173
:1004F000E1010E94B10185E01092E701109209022A
:100500001092E601DF91CF911F910F91FF90EF9034
:10051000DF90CF9008959D9191938F5F6DCF85EE81
:10052000A9CF8091E2019091E301A091E401B09103
:10053000E501892B8A2B8B2B09F4A2CF0E94450160
:100540000091E2011091E3012091E4013091E50175
:100550006C197D098E099F090617170728073907A7
:1005600008F08ECFC4CF80E0C7CF82E0C5CF83E054
:10057000C3CF0895E091B9018091B801E81730F434
:10058000F0E0E856FE4F808190E008958FEF9FEFF6
:1005900008958091B8019091B901891B990B089534
:1005A000CF92DF92EF92FF920F931F93CF93DF933F
:1005B0007C01CB018A012091E601222389F0EB0125
:1005C0006B01C40ED51ECC15DD0569F06991D7010C
:1005D000ED91FC910190F081E02DC7010995F3CFD9
:1005E000642F0E946C01C801DF91CF911F910F9180
:1005F000FF90EF90DF90CF900895CF93DF931F92FD
:10060000CDB7DEB769832091E6012223F9F020916E
:100610000902203258F021E030E0FC0133832283CC
:1006200090E080E00F90DF91CF9108958091E701F5
:10063000E82FF0E0E851FE4F998190838F5F80931F
:10064000E7018093090281E090E0ECCF61E0CE0108
:1006500001960E946C01F7CF682F8AE092E00C941B
:10066000FD0290E080E0089585ED8093BC008091CC
:10067000E2019091E301A091E401B091E5010796B8
:10068000A11DB11D23E0B695A795979587952A954D
:10069000D1F72091BC0024FD03C01092E001089521
:1006A0004091E2015091E3016091E4017091E50114
:1006B000452B462B472B69F30097A105B10541F067
:1006C0002AE22A95F1F700C00197A109B109E1CF0B
:1006D0008091E1010C94B101CF92DF92EF92FF92F1
:1006E0000F931F93CF9381E08093E60188E6809378
:1006F00008021092E701109209028BE390E00E9439
:100700002C030E94D2010E9445016B017C01809163
:10071000E001811165C081E08093E0018093DF01F9
:100720009FEF9093DE011092DD019DE09093DC013C
:100730008093BB018091BB01806D8093BB01809150
:10074000BA01813009F0E4C01092BA010E9445015B
:100750006B017C018091BB018093BB008091E20121
:100760009091E301A091E401B091E501892B8A2BDE
:100770008B2BA1F00E9445010091E2011091E30151
:100780002091E4013091E5016C197D098E099F09E2
:10079000061717072807390708F443C08091BC00E3
:1007A00083FDD8CF85EC8093BC000E9445016B018E
:1007B0007C018091E001813009F4ACC08091DD01C1
:1007C0008E3008F0C9C08091DD01ACEBB1E0E8E902
:1007D000F1E090E0981751F12D9121939F5FFACFAE
:1007E0008091E2019091E301A091E401B091E501D3
:1007F000892B8A2B8B2B09F48ACF0E94450100910B
:10080000E2011091E3012091E4013091E5016C19BE
:100810007D098E099F09061717072807390708F071
:1008200076CF8091E1010E94B10180E01092B90180
:100830008093B8018E30F0F30E94C700C82F0E9449
:10084000C70020E0822B9C2B092E000CAA0BBB0BAF
:100850008093710190937201A0937301B09374011E
:100860000E94C700C82F0E94C70020E0822B9C2B4B
:10087000092E000CAA0BBB0B80936D0190936E01A7
:10088000A0936F01B09370010E94C700C82F0E940F
:10089000C70020E0822B9C2B092E000CAA0BBB0B5F
:1008A0008093690190936A01A0936B01B0936C01EE
:1008B0000E94C7000E94C7000E94C700C82F0E9464
:1008C000C70020E0822B9C2B90938E0180938D019A
:1008D0000E94C700C82F0E94C70020E0822B9C2BDB
:1008E00090938801809387010E94C700C82F0E94BF
:1008F000C70020E0822B9C2B909382018093810182
:10090000CF911F910F91FF90EF90DF90CF900895BE
:1009100085EE49CF8091E2019091E301A091E4013D
:10092000B091E501892B8A2B8B2B09F442CF0E94D1
:1009300045010091E2011091E3012091E401309121
:10094000E5016C197D098E099F090617170728070D
:10095000390708F02ECF65CF8EE037CF1F920F9268
:100960000FB60F9211242F933F938F939F93AF93C2
:10097000BF938091900190919101A0919201B091CB
:10098000930130918F0123E0230F2D3758F5019605
:10099000A11DB11D20938F0180939001909391012F
:1009A000A0939201B093930180919401909195014D
:1009B000A0919601B09197010196A11DB11D809360
:1009C000940190939501A0939601B0939701BF91E4
:1009D000AF919F918F913F912F910F900FBE0F90EC
:1009E0001F90189526E8230F0296A11DB11DD2CFA6
:1009F0001F920F920FB60F9211242F933F934F9394
:100A00005F936F937F938F939F93AF93BF93EF9376
:100A1000FF938091B900887F803609F44AC0F0F5D1
:100A2000883209F4A7C018F5803109F49BC0B8F4E6
:100A3000882309F4F9C0883009F494C0FF91EF913C
:100A4000BF91AF919F918F917F916F915F914F91E6
:100A50003F912F910F900FBE0F901F9018958831E6
:100A600009F488C0803251F78093DE0114C08034CD
:100A700009F49DC040F48033B9F38833F9F68093CC
:100A8000DE0185ECB0C0803509F485C0883509F4F5
:100A900096C0883499F60E943403D0CF883909F47F
:100AA0008CC038F5883729F050F4883611F080373B
:100AB00029F683E08093E0011092550157C08838F1
:100AC00009F47BC0803919F0803809F0B7CF8091E4
:100AD0005501803208F071C0E091550181E08E0F20
:100AE000809355018091BB00F0E0EB5CFE4F80836A
:100AF0003DC0803B39F0E0F4803A09F479C0883A8F
:100B000009F09CCF84E08093E001109234011092B0
:100B10003301E0915801F091590109958091330119
:100B200081110FC081E0809333011092130109C03D
:100B3000803C09F4A6CF883C09F4A3CF883B09F098
:100B40007DCFE091340181E08E0F80933401F0E09D
:100B5000ED5EFE4F80818093BB00909134018091C7
:100B6000330129C08091BB018093BB0085EC809349
:100B7000BC0064CF9091DD018091DC01981758F59D
:100B8000E091DD0181E08E0F8093DD01F0E0E4541F
:100B9000FE4F8081E9CFE091DD0181E08E0F8093EF
:100BA000DD018091BB00F0E0E454FE4F8083909122
:100BB000DD018091DC019817C8F285E8D8CFE0917B
:100BC000DD0181E08E0F8093DD018091BB00F0E0BC
:100BD000E454FE4F80838091DF0181115CCF81E07E
:100BE0008093BA0184EA8093BC001092E00126CF82
:100BF00085EC8093BC001092E00180915501803219
:100C000030F4E0915501F0E0EB5CFE4F1082609112
:100C1000550170E0E0915601F091570185E391E0B4
:100C20000995109255010ACF1092DE0134CFCF936F
:100C3000DF93CDB7DEB72C970FB6F894DEBF0FBEAB
:100C4000CDBF789484B5826084BD84B5816084BD55
:100C500085B5826085BD85B5816085BD80916E005A
:100C6000816080936E00109281008091810082608B
:100C700080938100809181008160809381008091C8
:100C800080008160809380008091B10084608093B7
:100C9000B1008091B00081608093B00080917A00B3
:100CA000846080937A0080917A00826080937A00D9
:100CB00080917A00816080937A0080917A008068C8
:100CC00080937A001092C1001092B9011092B8017D
:100CD0001092E701109209020E9493018AE691E0C6
:100CE00090935901809358018BE691E090935701BE
:100CF000809356018AE00E94DA0089E00E94DA00BF
:100D000086E00E94DA0088E00E94DA0087E00E9414
:100D1000DA008BE00E94DA008CE00E94DA0085E0C5
:100D20000E94DA0084E00E94DA00CC24C394C092CE
:100D3000E60188E6809308028BE690E00E942C038F
:100D400090E080E00E942C030E94D201C092E60154
:100D50001092E701109209028CE190E00E942C03AE
:100D600080E190E00E942C030E94D201C092E60133
:100D70001092E701109209028BE190E00E942C038F
:100D800088E090E00E942C030E94D20108EE13E05C
:100D90000E946C0380908D0190908E01092C000CB4
:100DA000AA08BB088091890190918A01A0918B01CA
:100DB000B0918C01880E991EAA1EBB1E80928901DB
:100DC00090928A01A0928B01B0928C01C090870111
:100DD000D09088010D2C000CEE08FF088091830153
:100DE00090918401A0918501B0918601A70196019F
:100DF000280F391F4A1F5B1F29833A834B835C836B
:100E000020938301309384014093850150938601A0
:100E10008091810190918201092E000CAA0BBB0BDD
:100E200040917D0150917E0160917F017091800120
:100E30006C017D01C40ED51EE61EF71ECD82DE823A
:100E4000EF82F886C0927D01D0927E01E0927F0110
:100E5000F09280010E9445012B013C0193E0C92ED4
:100E6000D12CE12CF12C0E944501641975098609E9
:100E70009709683E734081059105A8F321E0C21AE5
:100E8000D108E108F10838EE430E33E0531E611C2F
:100E9000711CC114D104E104F10429F701501109B6
:100EA00009F076CF88EE482E83E0582E612C712C05
:100EB000C501B401A30192010E94160E209389017D
:100EC00030938A0140938B0150938C0169817A8120
:100ED0008B819C81A30192010E94160E20938301B5
:100EE0003093840140938501509386016D817E810A
:100EF0008F819885A30192010E94160E20937D0197
:100F000030937E0140937F01509380010E94450100
:100F100060935A0170935B0180935C0190935D0133
:100F200000E010E00E946C03E0908D01F0908E01D3
:100F30008091890190918A01E81AF90AF0928E0154
:100F4000E0928D0160918701709188018091830109
:100F500090918401681B790B7093880160938701DD
:100F6000C0908101D090820180917D0190917E019D
:100F7000C81AD90AD0928201C0928101072E000CB2
:100F8000880B990B0E94E70B20ED32E240E858E312
:100F90000E94F70C20917501309176014091770104
:100FA000509178010E94B10A4B015C01B601DD0C41
:100FB000880B990B0E94E70B2BE733E14FE855E3D1
:100FC0000E94F70C0E94640D2B013C01B701FF0C3D
:100FD000880B990B0E94E70B20ED32E240E858E3C2
:100FE0000E94F70C2091790130917A0140917B01A8
:100FF00050917C010E94B10A6B017C01A301920116
:10100000C501B4010E94F70C9B01AC01C701B601F8
:101010000E94B10A6D837E838F8398879B01AC0108
:10102000C301B2010E94F70C9B01AC01C501B401E0
:101030000E94B00A69877A878B879C8740907101EC
:1010400050907201609073017090740180906D01F6
:1010500090906E01A0906F01B0907001C0906901F6
:10106000D0906A01E0906B01F0906C01C982DA8245
:10107000EB82FC82A3019201C301B2010E94060E21
:101080006B017C01A5019401C501B4010E94060E0B
:10109000C60ED71EE81EF91E29813A814B815C815C
:1010A000CA01B9010E94060E6C0D7D1D8E1D9F1D8B
:1010B0000E94E70B0E94720D0E94AF0B0E94E70B8B
:1010C0006B017C01C501B4010E94E70BA7019601E9
:1010D0000E943D0B0E941D0B2BE13FE245E652E4CE
:1010E0000E94F70C4B015C01C301B2010E94E70BA7
:1010F000A70196010E943D0B0E941D0B2BE13FE2D0
:1011000045E652EC0E94F70C6B017C01809168016E
:10111000882309F411C129EC35EE4FE75FE36D81B7
:101120007E818F8198850E94F70C2B013C0127E17D
:1011300037EB41ED59E3C501B4010E94F70C9B0167
:10114000AC01C301B2010E94B10A609379017093AE
:101150007A0180937B0190937C0129EC35EE4FE777
:101160005FE369857A858B859C850E94F70C4B012E
:101170005C0127E137EB41ED59E3C701B6010E945D
:10118000F70C9B01AC01C501B4010E94B10A609348
:10119000750170937601809377019093780126E62C
:1011A00036E646E65FE360916401709165018091E7
:1011B0006601909167010E94F70C6B017C012DEC98
:1011C0003CEC4CEC5DE36091790170917A01809187
:1011D0007B0190917C010E94F70C9B01AC01C7013F
:1011E000B6010E94B10A6B017C01C0926401D092E9
:1011F0006501E0926601F092670126E636E646E672
:101200005FE3609160017091610180916201909152
:1012100063010E94F70C4B015C012DEC3CEC4CECA3
:101220005DE36091750170917601809177019091F5
:1012300078010E94F70C9B01AC01C501B4010E942A
:10124000B10A4B015C018092600190926101A09211
:101250006201B092630180915E0190915F010196FD
:1012600090935F0180935E01853691050CF440C038
:1012700020E030E040E85FEBC501B4010E94380B8C
:1012800087FF6FC060E084E00E94F90060E085E0C5
:101290000E94F90060E086E00E94F90060E08BE0C7
:1012A0000E94F90061E08CE00E94F90020E030E04B
:1012B00040E85FEBC701B6010E94380B87FFC8C04A
:1012C00061E08AE00E94F90060E089E00E94F90094
:1012D00060E086E00E94F90060E088E00E94F9008A
:1012E00060E087E00E94F90010925F0110925E01B9
:1012F0000E944501C0905A01D0905B01E0905C01D2
:10130000F0905D016C197D098E099F09603A7F405C
:101310008105910568F30E94450160935A0170931D
:101320005B0180935C0190935D010115110509F447
:10133000F9CD0E940000F6CD8092790190927A0159
:10134000A0927B01B0927C01C0927501D09276018F
:10135000E0927701F0927801DD24D394D092680175
:101360001ECF20E030E040E85FEBC501B4010E94F1
:10137000F20C87FD1CC020E030E040E05FEBC501CF
:10138000B4010E94380B87FF12C060E084E00E9425
:10139000F90060E085E00E94F90060E086E00E94CC
:1013A000F90061E08BE00E94F90060E07CCF20E072
:1013B00030E040E05FEBC501B4010E94F20C87FD14
:1013C00018C020E030E040E05FE3C501B4010E94B6
:1013D000380B181674F060E084E00E94F90060E0B9
:1013E00085E00E94F90061E086E00E94F90060E07B
:1013F000D9CF20E030E040E05FE3C501B4010E94B6
:10140000F20C1816A4F420E030E040E85FE3C501D8
:10141000B4010E94380B181654F060E084E00E947A
:10142000F90061E085E00E94F90060E0DDCF20E096
:1014300030E040E85FE3C501B4010E94F20C1816E9
:101440000CF034CF61E084E00E94F90060E0EACF64
:1014500020E030E040E85FEBC701B6010E94F20CEB
:1014600087FD10C020E030E040E05FEBC701B6012F
:101470000E94380B87FF06C060E08AE00E94F900F6
:1014800061E023CF20E030E040E05FEBC701B60130
:101490000E94F20C87FD14C020E030E040E05FE3E2
:1014A000C701B6010E94380B181654F060E08AE0BC
:1014B0000E94F90060E089E00E94F90061E009CF34
:1014C00020E030E040E05FE3C701B6010E94F20C8B
:1014D0001816C4F420E030E040E85FE3C701B6012D
:1014E0000E94380B181674F060E08AE00E94F90040
:1014F00060E089E00E94F90060E086E00E94F90067
:1015000061E0EBCE20E030E040E85FE3C701B601E8
:101510000E94F20C18160CF0E7CE60E08AE00E9400
:10152000F90060E089E00E94F90060E086E00E9436
:10153000F90060E088E00E94F90061E0D2CEEAE0C4
:10154000F2E01382128288EE93E0A0E0B0E08483A0
:101550009583A683B78384E091E091838083089587
:101560005058BB27AA270E94C80A0C94B80C0E94A6
:10157000AA0C38F00E94B10C20F039F49F3F19F406
:1015800026F40C946C0C0EF4E095E7FB0C94660CBE
:10159000E92F0E94C90C58F3BA1762077307840732
:1015A000950720F079F4A6F50C94EB0C0EF4E09579
:1015B0000B2EBA2FA02D0B01B90190010C01CA010D
:1015C000A0011124FF27591B99F0593F50F4503EB8
:1015D00068F11A16F040A22F232F342F4427585FAA
:1015E000F3CF469537952795A795F0405395C9F7C2
:1015F0007EF41F16BA0B620B730B840BBAF091507A
:10160000A1F0FF0FBB1F661F771F881FC2F70EC018
:10161000BA0F621F731F841F48F4879577956795EB
:10162000B795F7959E3F08F0B0CF9395880F08F0D7
:101630009927EE0F9795879508959F939F77EEE3EF
:1016400089379E0728F4E8E6F0E00E94960C0CC06B
:101650000E94220C9058A2EA2AED3FE049EC5FE399
:101660000E94C80A0E94B80C0F9007FC9058089579
:101670000E94420C08F481E008950E94510B0C94E2
:10168000B80C0E94B10C58F00E94AA0C40F029F44A
:101690005F3F29F00C94660C51110C94EC0C0C94E7
:1016A0006C0C0E94C90C68F39923B1F3552391F394
:1016B000951B550BBB27AA2762177307840738F0C1
:1016C0009F5F5F4F220F331F441FAA1FA9F335D01E
:1016D0000E2E3AF0E0E832D091505040E695001CD2
:1016E000CAF72BD0FE2F29D0660F771F881FBB1F8C
:1016F000261737074807AB07B0E809F0BB0B802D6A
:10170000BF01FF2793585F4F3AF09E3F510578F095
:101710000C94660C0C94EC0C5F3FE4F3983ED4F30D
:10172000869577956795B795F7959F5FC9F7880F69
:10173000911D9695879597F90895E1E0660F771FBB
:10174000881FBB1F621773078407BA0720F0621B4C
:10175000730B840BBA0BEE1F88F7E09508950E9477
:10176000B60B6894B1110C94EC0C08950E94D10C46
:1017700088F09F5798F0B92F9927B751B0F0E1F052
:10178000660F771F881F991F1AF0BA95C9F714C002
:10179000B13091F00E94EB0CB1E008950C94EB0C89
:1017A000672F782F8827B85F39F0B93FCCF386953B
:1017B00077956795B395D9F73EF490958095709598
:1017C00061957F4F8F4F9F4F0895E89409C097FB15
:1017D0003EF490958095709561957F4F8F4F9F4F08
:1017E0009923A9F0F92F96E9BB279395F69587954C
:1017F00077956795B795F111F8CFFAF4BB0F11F40F
:1018000060FF1BC06F5F7F4F8F4F9F4F16C08823B5
:1018100011F096E911C0772321F09EE8872F762FEB
:1018200005C0662371F096E8862F70E060E02AF02C
:101830009A95660F771F881FDAF7880F9695879518
:1018400097F90895DF93CF931F930F938B01EC01CA
:10185000ECE7F0E00E946F0C0E94B80C9801AE011A
:101860008B01EC0160E070E080E89FE30E94B00A29
:101870000E94720D9801AE010F911F91CF91DF91DF
:101880000C940A0D990F0008550FAA0BE0E8FEEF23
:1018900016161706E807F907C0F012161306E40734
:1018A000F50798F0621B730B840B950B39F40A262D
:1018B00061F0232B242B252B21F408950A2609F40B
:1018C000A140A6958FEF811D811D089597F99F670F
:1018D00080E870E060E008959FEF80EC0895DF936A
:1018E000CF931F930F93FF92EF92DF927B018C01B6
:1018F000689406C0DA2EEF010E940A0DFE01E894FA
:10190000A5912591359145915591A6F3EF010E943E
:10191000C80AFE019701A801DA9469F7DF90EF90F9
:10192000FF900F911F91CF91DF9108959F938F9317
:101930007F936F93FF93EF939B01AC010E94F70C91
:10194000EF91FF910E946F0C2F913F914F915F910A
:101950000C94F70C00240A941616170618060906AC
:10196000089500240A941216130614060506089515
:10197000092E0394000C11F4882352F0BB0F40F49D
:10198000BF2B11F460FF04C06F5F7F4F8F4F9F4FDD
:10199000089557FD9058440F551F59F05F3F71F05F
:1019A0004795880F97FB991F61F09F3F79F08795C6
:1019B0000895121613061406551FF2CF4695F1DF4F
:1019C00008C0161617061806991FF1CF86957105DF
:1019D000610508940895E894BB2766277727CB0113
:1019E00097F908950E94420C08F48FEF08950E9421
:1019F0000A0D0C94B80C0E94AA0C38F00E94B10C8D
:101A000020F0952311F00C94660C0C946C0C1124AE
:101A10000C94EC0C0E94C90C70F3959FC1F3950FC8
:101A200050E0551F629FF001729FBB27F00DB11D62
:101A3000639FAA27F00DB11DAA1F649F6627B00DF2
:101A4000A11D661F829F2227B00DA11D621F739FDB
:101A5000B00DA11D621F839FA00D611D221F749FE9
:101A60003327A00D611D231F849F600D211D822F30
:101A7000762F6A2F11249F5750409AF0F1F0882357
:101A80004AF0EE0FFF1FBB1F661F771F881F915084
:101A90005040A9F79E3F510580F00C94660C0C94C1
:101AA000EC0C5F3FE4F3983ED4F386957795679509
:101AB000B795F795E7959F5FC1F7FE2B880F911DAE
:101AC0009695879597F908959F930E94C90D0F9059
:101AD00007FCEE5F0C94F20D19F416F40C946C0CE8
:101AE0000C94B20D0E94D10CB8F39923C9F3B6F34C
:101AF0009F57550B87FF0E94C00D0024A0E640EAC7
:101B0000900180585695979528F4805C660F771F52
:101B1000881F20F026173707480730F4621B730B25
:101B2000840B202931294A2BA69517940794202548
:101B300031254A2758F7660F771F881F20F0261790
:101B40003707480730F4620B730B840B200D311DEF
:101B5000411DA09581F7B901842F9158880F969562
:101B6000879508959F3F31F0915020F487957795A0
:101B70006795B795880F911D9695879597F9089564
:101B800091505040660F771F881FD2F708950C942C
:101B90006C0C0E94D10CD8F3E894E0E0BB279F576F
:101BA000F0F02AED3FE049EC06C0EE0FBB0F661FD8
:101BB000771F881F28F0B23A62077307840728F05E
:101BC000B25A620B730B840BE3959A9572F78038C7
:101BD00030F49A95BB0F661F771F881FD2F7904885
:101BE0000C94B40DEF93E0FF07C0A2EA2AED3FE0AA
:101BF00049EC5FEB0E94C80A0E94B80C0F90039456
:101C000001FC9058E4EAF0E00C94960CDB018F9311
:101C10009F930E94350EBF91AF91A29F800D911DA1
:101C2000A39F900DB29F900D11240895052E97FB50
:101C30001EF400940E942D0E57FD07D00E94400E06
:101C400007FC03D04EF40C942D0E50954095309522
:101C500021953F4F4F4F5F4F089590958095709518
:101C600061957F4F8F4F9F4F08950E94680EA59FEB
:101C7000900DB49F900DA49F800D911D1124089587
:101C8000A1E21A2EAA1BBB1BFD010DC0AA1FBB1F80
:101C9000EE1FFF1FA217B307E407F50720F0A21BF2
:101CA000B30BE40BF50B661F771F881F991F1A945F
:101CB00069F760957095809590959B01AC01BD0189
:101CC000CF010895EE0FFF1F0590F491E02D0994C8
:101CD000A29FB001B39FC001A39F700D811D11246D
:101CE000911DB29F700D811D1124911D0895F894CE
:101CF000FFCF00000000FD02D0023103B902C9028B
:041D0000B400BA026F
:107E0000112484B714BE81FFF0D085E080938100F7
:107E100082E08093C00088E18093C10086E0809377
:107E2000C20080E18093C4008EE0C9D0259A86E02C
:107E300020E33CEF91E0309385002093840096BBD3
:107E4000B09BFECF1D9AA8958150A9F7CC24DD24C4
:107E500088248394B5E0AB2EA1E19A2EF3E0BF2EE7
:107E6000A2D0813461F49FD0082FAFD0023811F036
:107E7000013811F484E001C083E08DD089C08234E0
:107E800011F484E103C0853419F485E0A6D080C0E4
:107E9000853579F488D0E82EFF2485D0082F10E0AE
:107EA000102F00270E291F29000F111F8ED06801E7
:107EB0006FC0863521F484E090D080E0DECF843638
:107EC00009F040C070D06FD0082F6DD080E0C81688
:107ED00080E7D80618F4F601B7BEE895C0E0D1E017
:107EE00062D089930C17E1F7F0E0CF16F0E7DF06D8
:107EF00018F0F601B7BEE89568D007B600FCFDCFD4
:107F0000A601A0E0B1E02C9130E011968C91119780
:107F100090E0982F8827822B932B1296FA010C0160
:107F200087BEE89511244E5F5F4FF1E0A038BF0790
:107F300051F7F601A7BEE89507B600FCFDCF97BE46
:107F4000E89526C08437B1F42ED02DD0F82E2BD052
:107F50003CD0F601EF2C8F010F5F1F4F84911BD097
:107F6000EA94F801C1F70894C11CD11CFA94CF0C13
:107F7000D11C0EC0853739F428D08EE10CD085E9AC
:107F80000AD08FE07ACF813511F488E018D01DD067
:107F900080E101D065CF982F8091C00085FFFCCF94
:107FA0009093C60008958091C00087FFFCCF809118
:107FB000C00084FD01C0A8958091C6000895E0E648
:107FC000F0E098E1908380830895EDDF803219F02E
:107FD00088E0F5DFFFCF84E1DECF1F93182FE3DFCA
:107FE0001150E9F7F2DF1F91089580E0E8DFEE27F6
:047FF000FF270994CA
:027FFE00040479
:00000001FF
